{"contracts/SimpleCreditScore.sol":{"SimpleCreditScore":{"abi":[{"inputs":[],"stateMutability":"nonpayable","type":"constructor"},{"inputs":[{"internalType":"address","name":"owner","type":"address"}],"name":"OwnableInvalidOwner","type":"error"},{"inputs":[{"internalType":"address","name":"account","type":"address"}],"name":"OwnableUnauthorizedAccount","type":"error"},{"inputs":[],"name":"ReentrancyGuardReentrantCall","type":"error"},{"anonymous":false,"inputs":[{"indexed":true,"internalType":"address","name":"user","type":"address"}],"name":"CreditProfileCreated","type":"event"},{"anonymous":false,"inputs":[{"indexed":true,"internalType":"address","name":"previousOwner","type":"address"},{"indexed":true,"internalType":"address","name":"newOwner","type":"address"}],"name":"OwnershipTransferred","type":"event"},{"anonymous":false,"inputs":[{"indexed":true,"internalType":"address","name":"user","type":"address"},{"indexed":false,"internalType":"enum SimpleCreditScore.CreditDimension","name":"dimension","type":"uint8"},{"indexed":false,"internalType":"uint256","name":"newScore","type":"uint256"},{"indexed":false,"internalType":"uint256","name":"confidence","type":"uint256"}],"name":"ScoreDimensionUpdated","type":"event"},{"anonymous":false,"inputs":[{"indexed":true,"internalType":"address","name":"user","type":"address"},{"indexed":true,"internalType":"address","name":"linkedWallet","type":"address"}],"name":"WalletLinked","type":"event"},{"inputs":[],"name":"MAX_CONFIDENCE","outputs":[{"internalType":"uint256","name":"","type":"uint256"}],"stateMutability":"view","type":"function"},{"inputs":[],"name":"MAX_SCORE","outputs":[{"internalType":"uint256","name":"","type":"uint256"}],"stateMutability":"view","type":"function"},{"inputs":[{"internalType":"address","name":"updater","type":"address"}],"name":"addAuthorizedUpdater","outputs":[],"stateMutability":"nonpayable","type":"function"},{"inputs":[{"internalType":"address","name":"","type":"address"}],"name":"authorizedUpdaters","outputs":[{"internalType":"bool","name":"","type":"bool"}],"stateMutability":"view","type":"function"},{"inputs":[{"internalType":"address","name":"user","type":"address"}],"name":"createCreditProfile","outputs":[],"stateMutability":"nonpayable","type":"function"},{"inputs":[{"internalType":"address","name":"user","type":"address"}],"name":"getCompositeScore","outputs":[{"internalType":"uint256","name":"compositeScore","type":"uint256"},{"internalType":"uint256","name":"overallConfidence","type":"uint256"}],"stateMutability":"view","type":"function"},{"inputs":[{"internalType":"address","name":"user","type":"address"}],"name":"getCreditProfile","outputs":[{"internalType":"bool","name":"exists","type":"bool"},{"internalType":"address","name":"userAddress","type":"address"},{"internalType":"uint256","name":"lastUpdated","type":"uint256"}],"stateMutability":"view","type":"function"},{"inputs":[{"internalType":"address","name":"user","type":"address"},{"internalType":"enum SimpleCreditScore.CreditDimension","name":"dimension","type":"uint8"}],"name":"getScoreDimension","outputs":[{"internalType":"uint256","name":"score","type":"uint256"},{"internalType":"uint256","name":"confidence","type":"uint256"},{"internalType":"uint256","name":"dataPoints","type":"uint256"},{"internalType":"enum SimpleCreditScore.ScoreTrend","name":"trend","type":"uint8"},{"internalType":"uint256","name":"lastCalculated","type":"uint256"},{"internalType":"bool","name":"hasInsufficientData","type":"bool"}],"stateMutability":"view","type":"function"},{"inputs":[],"name":"owner","outputs":[{"internalType":"address","name":"","type":"address"}],"stateMutability":"view","type":"function"},{"inputs":[{"internalType":"address","name":"updater","type":"address"}],"name":"removeAuthorizedUpdater","outputs":[],"stateMutability":"nonpayable","type":"function"},{"inputs":[],"name":"renounceOwnership","outputs":[],"stateMutability":"nonpayable","type":"function"},{"inputs":[{"internalType":"address","name":"newOwner","type":"address"}],"name":"transferOwnership","outputs":[],"stateMutability":"nonpayable","type":"function"},{"inputs":[{"internalType":"address","name":"user","type":"address"},{"internalType":"enum SimpleCreditScore.CreditDimension","name":"dimension","type":"uint8"},{"internalType":"uint256[]","name":"rawData","type":"uint256[]"},{"internalType":"uint256[]","name":"weights","type":"uint256[]"}],"name":"updateScoreDimension","outputs":[],"stateMutability":"nonpayable","type":"function"}],"evm":{"bytecode":{"linkReferences":{},"object":"608060405234801561001057600080fd5b50338061003757604051631e4fbdf760e01b81526000600482015260240160405180910390fd5b61004081610065565b506001808055336000908152600360205260409020805460ff191690911790556100b5565b600080546001600160a01b038381166001600160a01b0319831681178455604051919092169283917f8be0079c531659141344cd1fd0a4f28419497f9722a3daafe3b4186f6b6457e09190a35050565b610e6b806100c46000396000f3fe608060405234801561001057600080fd5b50600436106100cf5760003560e01c8063715018a61161008c5780638da5cb5b116100665780638da5cb5b146101ef5780638ff29cfe1461020a578063ed0649a91461023d578063f2fde38b1461025057600080fd5b8063715018a6146101c157806374df2d54146101c95780638c9b9fdc146101dc57600080fd5b8063079bafe3146100d457806324cccb3c1461014057806327ff6223146101655780634ac358a61461017c578063603cda09146101a45780636c78449c146101b9575b600080fd5b6101166100e2366004610bb1565b6001600160a01b0390811660009081526002602052604090206004810154815460039092015460ff90911693919092169190565b6040805193151584526001600160a01b039092166020840152908201526060015b60405180910390f35b61015361014e366004610be2565b610263565b60405161013796959493929190610c2b565b61016e6103e881565b604051908152602001610137565b61018f61018a366004610bb1565b610339565b60408051928352602083019190915201610137565b6101b76101b2366004610bb1565b610475565b005b61016e606481565b6101b761049e565b6101b76101d7366004610bb1565b6104b2565b6101b76101ea366004610bb1565b610711565b6000546040516001600160a01b039091168152602001610137565b61022d610218366004610bb1565b60036020526000908152604090205460ff1681565b6040519015158152602001610137565b6101b761024b366004610cbb565b610785565b6101b761025e366004610bb1565b6109ea565b6001600160a01b0382166000908152600260205260408120600401548190819081908190819060ff166102b15760405162461bcd60e51b81526004016102a890610d4c565b60405180910390fd5b6001600160a01b0388166000908152600260208190526040822001818960048111156102df576102df610c15565b60048111156102f0576102f0610c15565b8152602081019190915260400160002080546001820154600283015460038401546004850154600590950154939e929d50909b5060ff9081169a50929850911695509350505050565b6001600160a01b038116600090815260026020526040812060040154819060ff166103765760405162461bcd60e51b81526004016102a890610d4c565b6001600160a01b0383166000908152600260205260408120908080805b600581101561043f5760008160048111156103b0576103b0610c15565b905060008660020160008360048111156103cc576103cc610c15565b60048111156103dd576103dd610c15565b81526020810191909152604001600020600581015490915060ff1661042a5780546104089087610d92565b955080600101548561041a9190610d92565b94508361042681610da5565b9450505b5050808061043790610da5565b915050610393565b508015610463576104508184610dbe565b955061045c8183610dbe565b945061046c565b60009550600094505b50505050915091565b61047d610a28565b6001600160a01b03166000908152600360205260409020805460ff19169055565b6104a6610a28565b6104b06000610a55565b565b3360009081526003602052604090205460ff16806104da57506000546001600160a01b031633145b6105175760405162461bcd60e51b815260206004820152600e60248201526d139bdd08185d5d1a1bdc9a5e995960921b60448201526064016102a8565b6001600160a01b03811660009081526002602052604090206004015460ff161561057c5760405162461bcd60e51b815260206004820152601660248201527550726f66696c6520616c72656164792065786973747360501b60448201526064016102a8565b6001600160a01b038116600081815260026020526040812080546001600160a01b031916909217825542600383015560048201805460ff191660011790555b60058110156106d85760008160048111156105d8576105d8610c15565b90506040518060c001604052806000815260200160008152602001600081526020016001600281111561060d5761060d610c15565b8152426020820152600160409091015260028401600083600481111561063557610635610c15565b600481111561064657610646610c15565b815260200190815260200160002060008201518160000155602082015181600101556040820151816002015560608201518160030160006101000a81548160ff0219169083600281111561069c5761069c610c15565b02179055506080820151600482015560a0909101516005909101805460ff191691151591909117905550806106d081610da5565b9150506105bb565b506040516001600160a01b038316907fd0a9c13827b0712cf11159866fa593fb3407410b98e81f0dcfa6bc7ffd47ac2d90600090a25050565b610719610a28565b6001600160a01b0381166107615760405162461bcd60e51b815260206004820152600f60248201526e496e76616c6964206164647265737360881b60448201526064016102a8565b6001600160a01b03166000908152600360205260409020805460ff19166001179055565b3360009081526003602052604090205460ff16806107ad57506000546001600160a01b031633145b6107ea5760405162461bcd60e51b815260206004820152600e60248201526d139bdd08185d5d1a1bdc9a5e995960921b60448201526064016102a8565b6107f2610aa5565b6001600160a01b03861660009081526002602052604090206004015460ff1661082d5760405162461bcd60e51b81526004016102a890610d4c565b8261086d5760405162461bcd60e51b815260206004820152601060248201526f139bc819185d18481c1c9bdd9a59195960821b60448201526064016102a8565b6001600160a01b03861660009081526002602081905260408220919082018188600481111561089e5761089e610c15565b60048111156108af576108af610c15565b8152602001908152602001600020905060006108fd878780806020026020016040519081016040528093929190818152602001838360200280828437600092019190915250610acf92505050565b90506000600587101561091a57610915876014610de0565b61091d565b60505b9050600061092f846000015484610b55565b838555600180860184905560028087018b90556003870180549394508493909260ff1990911691849081111561096757610967610c15565b021790555042600485018190556005808601805460ff1916918b1091909117905560038601556040516001600160a01b038c16907ff99b345299f82a2fd2b37c250d9f229a136cf3aba480c8840799a59ee84f8a3c906109cc908d9087908790610df7565b60405180910390a250505050506109e260018055565b505050505050565b6109f2610a28565b6001600160a01b038116610a1c57604051631e4fbdf760e01b8152600060048201526024016102a8565b610a2581610a55565b50565b6000546001600160a01b031633146104b05760405163118cdaa760e01b81523360048201526024016102a8565b600080546001600160a01b038381166001600160a01b0319831681178455604051919092169283917f8be0079c531659141344cd1fd0a4f28419497f9722a3daafe3b4186f6b6457e09190a35050565b600260015403610ac857604051633ee5aeb560e01b815260040160405180910390fd5b6002600155565b60008151600003610ae257506000919050565b6000805b8351811015610b2857838181518110610b0157610b01610e1f565b602002602001015182610b149190610d92565b915080610b2081610da5565b915050610ae6565b506000835182610b389190610dbe565b90506103e88111610b495780610b4d565b6103e85b949350505050565b6000610b6283600a610d92565b821115610b7157506000610b8f565b610b7c82600a610d92565b831115610b8b57506002610b8f565b5060015b92915050565b80356001600160a01b0381168114610bac57600080fd5b919050565b600060208284031215610bc357600080fd5b610bcc82610b95565b9392505050565b803560058110610bac57600080fd5b60008060408385031215610bf557600080fd5b610bfe83610b95565b9150610c0c60208401610bd3565b90509250929050565b634e487b7160e01b600052602160045260246000fd5b868152602081018690526040810185905260c0810160038510610c5057610c50610c15565b84606083015283608083015282151560a0830152979650505050505050565b60008083601f840112610c8157600080fd5b50813567ffffffffffffffff811115610c9957600080fd5b6020830191508360208260051b8501011115610cb457600080fd5b9250929050565b60008060008060008060808789031215610cd457600080fd5b610cdd87610b95565b9550610ceb60208801610bd3565b9450604087013567ffffffffffffffff80821115610d0857600080fd5b610d148a838b01610c6f565b90965094506060890135915080821115610d2d57600080fd5b50610d3a89828a01610c6f565b979a9699509497509295939492505050565b602080825260169082015275141c9bd99a5b1948191bd95cc81b9bdd08195e1a5cdd60521b604082015260600190565b634e487b7160e01b600052601160045260246000fd5b80820180821115610b8f57610b8f610d7c565b600060018201610db757610db7610d7c565b5060010190565b600082610ddb57634e487b7160e01b600052601260045260246000fd5b500490565b8082028115828204841417610b8f57610b8f610d7c565b6060810160058510610e0b57610e0b610c15565b938152602081019290925260409091015290565b634e487b7160e01b600052603260045260246000fdfea26469706673582212204f02d41e8662796612a67deae604c6fda6af6234e22b690ef97f3a61ab602f7864736f6c63430008140033","opcodes":"PUSH1 0x80 PUSH1 0x40 MSTORE CALLVALUE DUP1 ISZERO PUSH2 0x10 JUMPI PUSH1 0x0 DUP1 REVERT JUMPDEST POP CALLER DUP1 PUSH2 0x37 JUMPI PUSH1 0x40 MLOAD PUSH4 0x1E4FBDF7 PUSH1 0xE0 SHL DUP2 MSTORE PUSH1 0x0 PUSH1 0x4 DUP3 ADD MSTORE PUSH1 0x24 ADD PUSH1 0x40 MLOAD DUP1 SWAP2 SUB SWAP1 REVERT JUMPDEST PUSH2 0x40 DUP2 PUSH2 0x65 JUMP JUMPDEST POP PUSH1 0x1 DUP1 DUP1 SSTORE CALLER PUSH1 0x0 SWAP1 DUP2 MSTORE PUSH1 0x3 PUSH1 0x20 MSTORE PUSH1 0x40 SWAP1 KECCAK256 DUP1 SLOAD PUSH1 0xFF NOT AND SWAP1 SWAP2 OR SWAP1 SSTORE PUSH2 0xB5 JUMP JUMPDEST PUSH1 0x0 DUP1 SLOAD PUSH1 0x1 PUSH1 0x1 PUSH1 0xA0 SHL SUB DUP4 DUP2 AND PUSH1 0x1 PUSH1 0x1 PUSH1 0xA0 SHL SUB NOT DUP4 AND DUP2 OR DUP5 SSTORE PUSH1 0x40 MLOAD SWAP2 SWAP1 SWAP3 AND SWAP3 DUP4 SWAP2 PUSH32 0x8BE0079C531659141344CD1FD0A4F28419497F9722A3DAAFE3B4186F6B6457E0 SWAP2 SWAP1 LOG3 POP POP JUMP JUMPDEST PUSH2 0xE6B DUP1 PUSH2 0xC4 PUSH1 0x0 CODECOPY PUSH1 0x0 RETURN INVALID PUSH1 0x80 PUSH1 0x40 MSTORE CALLVALUE DUP1 ISZERO PUSH2 0x10 JUMPI PUSH1 0x0 DUP1 REVERT JUMPDEST POP PUSH1 0x4 CALLDATASIZE LT PUSH2 0xCF JUMPI PUSH1 0x0 CALLDATALOAD PUSH1 0xE0 SHR DUP1 PUSH4 0x715018A6 GT PUSH2 0x8C JUMPI DUP1 PUSH4 0x8DA5CB5B GT PUSH2 0x66 JUMPI DUP1 PUSH4 0x8DA5CB5B EQ PUSH2 0x1EF JUMPI DUP1 PUSH4 0x8FF29CFE EQ PUSH2 0x20A JUMPI DUP1 PUSH4 0xED0649A9 EQ PUSH2 0x23D JUMPI DUP1 PUSH4 0xF2FDE38B EQ PUSH2 0x250 JUMPI PUSH1 0x0 DUP1 REVERT JUMPDEST DUP1 PUSH4 0x715018A6 EQ PUSH2 0x1C1 JUMPI DUP1 PUSH4 0x74DF2D54 EQ PUSH2 0x1C9 JUMPI DUP1 PUSH4 0x8C9B9FDC EQ PUSH2 0x1DC JUMPI PUSH1 0x0 DUP1 REVERT JUMPDEST DUP1 PUSH4 0x79BAFE3 EQ PUSH2 0xD4 JUMPI DUP1 PUSH4 0x24CCCB3C EQ PUSH2 0x140 JUMPI DUP1 PUSH4 0x27FF6223 EQ PUSH2 0x165 JUMPI DUP1 PUSH4 0x4AC358A6 EQ PUSH2 0x17C JUMPI DUP1 PUSH4 0x603CDA09 EQ PUSH2 0x1A4 JUMPI DUP1 PUSH4 0x6C78449C EQ PUSH2 0x1B9 JUMPI JUMPDEST PUSH1 0x0 DUP1 REVERT JUMPDEST PUSH2 0x116 PUSH2 0xE2 CALLDATASIZE PUSH1 0x4 PUSH2 0xBB1 JUMP JUMPDEST PUSH1 0x1 PUSH1 0x1 PUSH1 0xA0 SHL SUB SWAP1 DUP2 AND PUSH1 0x0 SWAP1 DUP2 MSTORE PUSH1 0x2 PUSH1 0x20 MSTORE PUSH1 0x40 SWAP1 KECCAK256 PUSH1 0x4 DUP2 ADD SLOAD DUP2 SLOAD PUSH1 0x3 SWAP1 SWAP3 ADD SLOAD PUSH1 0xFF SWAP1 SWAP2 AND SWAP4 SWAP2 SWAP1 SWAP3 AND SWAP2 SWAP1 JUMP JUMPDEST PUSH1 0x40 DUP1 MLOAD SWAP4 ISZERO ISZERO DUP5 MSTORE PUSH1 0x1 PUSH1 0x1 PUSH1 0xA0 SHL SUB SWAP1 SWAP3 AND PUSH1 0x20 DUP5 ADD MSTORE SWAP1 DUP3 ADD MSTORE PUSH1 0x60 ADD JUMPDEST PUSH1 0x40 MLOAD DUP1 SWAP2 SUB SWAP1 RETURN JUMPDEST PUSH2 0x153 PUSH2 0x14E CALLDATASIZE PUSH1 0x4 PUSH2 0xBE2 JUMP JUMPDEST PUSH2 0x263 JUMP JUMPDEST PUSH1 0x40 MLOAD PUSH2 0x137 SWAP7 SWAP6 SWAP5 SWAP4 SWAP3 SWAP2 SWAP1 PUSH2 0xC2B JUMP JUMPDEST PUSH2 0x16E PUSH2 0x3E8 DUP2 JUMP JUMPDEST PUSH1 0x40 MLOAD SWAP1 DUP2 MSTORE PUSH1 0x20 ADD PUSH2 0x137 JUMP JUMPDEST PUSH2 0x18F PUSH2 0x18A CALLDATASIZE PUSH1 0x4 PUSH2 0xBB1 JUMP JUMPDEST PUSH2 0x339 JUMP JUMPDEST PUSH1 0x40 DUP1 MLOAD SWAP3 DUP4 MSTORE PUSH1 0x20 DUP4 ADD SWAP2 SWAP1 SWAP2 MSTORE ADD PUSH2 0x137 JUMP JUMPDEST PUSH2 0x1B7 PUSH2 0x1B2 CALLDATASIZE PUSH1 0x4 PUSH2 0xBB1 JUMP JUMPDEST PUSH2 0x475 JUMP JUMPDEST STOP JUMPDEST PUSH2 0x16E PUSH1 0x64 DUP2 JUMP JUMPDEST PUSH2 0x1B7 PUSH2 0x49E JUMP JUMPDEST PUSH2 0x1B7 PUSH2 0x1D7 CALLDATASIZE PUSH1 0x4 PUSH2 0xBB1 JUMP JUMPDEST PUSH2 0x4B2 JUMP JUMPDEST PUSH2 0x1B7 PUSH2 0x1EA CALLDATASIZE PUSH1 0x4 PUSH2 0xBB1 JUMP JUMPDEST PUSH2 0x711 JUMP JUMPDEST PUSH1 0x0 SLOAD PUSH1 0x40 MLOAD PUSH1 0x1 PUSH1 0x1 PUSH1 0xA0 SHL SUB SWAP1 SWAP2 AND DUP2 MSTORE PUSH1 0x20 ADD PUSH2 0x137 JUMP JUMPDEST PUSH2 0x22D PUSH2 0x218 CALLDATASIZE PUSH1 0x4 PUSH2 0xBB1 JUMP JUMPDEST PUSH1 0x3 PUSH1 0x20 MSTORE PUSH1 0x0 SWAP1 DUP2 MSTORE PUSH1 0x40 SWAP1 KECCAK256 SLOAD PUSH1 0xFF AND DUP2 JUMP JUMPDEST PUSH1 0x40 MLOAD SWAP1 ISZERO ISZERO DUP2 MSTORE PUSH1 0x20 ADD PUSH2 0x137 JUMP JUMPDEST PUSH2 0x1B7 PUSH2 0x24B CALLDATASIZE PUSH1 0x4 PUSH2 0xCBB JUMP JUMPDEST PUSH2 0x785 JUMP JUMPDEST PUSH2 0x1B7 PUSH2 0x25E CALLDATASIZE PUSH1 0x4 PUSH2 0xBB1 JUMP JUMPDEST PUSH2 0x9EA JUMP JUMPDEST PUSH1 0x1 PUSH1 0x1 PUSH1 0xA0 SHL SUB DUP3 AND PUSH1 0x0 SWAP1 DUP2 MSTORE PUSH1 0x2 PUSH1 0x20 MSTORE PUSH1 0x40 DUP2 KECCAK256 PUSH1 0x4 ADD SLOAD DUP2 SWAP1 DUP2 SWAP1 DUP2 SWAP1 DUP2 SWAP1 DUP2 SWAP1 PUSH1 0xFF AND PUSH2 0x2B1 JUMPI PUSH1 0x40 MLOAD PUSH3 0x461BCD PUSH1 0xE5 SHL DUP2 MSTORE PUSH1 0x4 ADD PUSH2 0x2A8 SWAP1 PUSH2 0xD4C JUMP JUMPDEST PUSH1 0x40 MLOAD DUP1 SWAP2 SUB SWAP1 REVERT JUMPDEST PUSH1 0x1 PUSH1 0x1 PUSH1 0xA0 SHL SUB DUP9 AND PUSH1 0x0 SWAP1 DUP2 MSTORE PUSH1 0x2 PUSH1 0x20 DUP2 SWAP1 MSTORE PUSH1 0x40 DUP3 KECCAK256 ADD DUP2 DUP10 PUSH1 0x4 DUP2 GT ISZERO PUSH2 0x2DF JUMPI PUSH2 0x2DF PUSH2 0xC15 JUMP JUMPDEST PUSH1 0x4 DUP2 GT ISZERO PUSH2 0x2F0 JUMPI PUSH2 0x2F0 PUSH2 0xC15 JUMP JUMPDEST DUP2 MSTORE PUSH1 0x20 DUP2 ADD SWAP2 SWAP1 SWAP2 MSTORE PUSH1 0x40 ADD PUSH1 0x0 KECCAK256 DUP1 SLOAD PUSH1 0x1 DUP3 ADD SLOAD PUSH1 0x2 DUP4 ADD SLOAD PUSH1 0x3 DUP5 ADD SLOAD PUSH1 0x4 DUP6 ADD SLOAD PUSH1 0x5 SWAP1 SWAP6 ADD SLOAD SWAP4 SWAP15 SWAP3 SWAP14 POP SWAP1 SWAP12 POP PUSH1 0xFF SWAP1 DUP2 AND SWAP11 POP SWAP3 SWAP9 POP SWAP2 AND SWAP6 POP SWAP4 POP POP POP POP JUMP JUMPDEST PUSH1 0x1 PUSH1 0x1 PUSH1 0xA0 SHL SUB DUP2 AND PUSH1 0x0 SWAP1 DUP2 MSTORE PUSH1 0x2 PUSH1 0x20 MSTORE PUSH1 0x40 DUP2 KECCAK256 PUSH1 0x4 ADD SLOAD DUP2 SWAP1 PUSH1 0xFF AND PUSH2 0x376 JUMPI PUSH1 0x40 MLOAD PUSH3 0x461BCD PUSH1 0xE5 SHL DUP2 MSTORE PUSH1 0x4 ADD PUSH2 0x2A8 SWAP1 PUSH2 0xD4C JUMP JUMPDEST PUSH1 0x1 PUSH1 0x1 PUSH1 0xA0 SHL SUB DUP4 AND PUSH1 0x0 SWAP1 DUP2 MSTORE PUSH1 0x2 PUSH1 0x20 MSTORE PUSH1 0x40 DUP2 KECCAK256 SWAP1 DUP1 DUP1 DUP1 JUMPDEST PUSH1 0x5 DUP2 LT ISZERO PUSH2 0x43F JUMPI PUSH1 0x0 DUP2 PUSH1 0x4 DUP2 GT ISZERO PUSH2 0x3B0 JUMPI PUSH2 0x3B0 PUSH2 0xC15 JUMP JUMPDEST SWAP1 POP PUSH1 0x0 DUP7 PUSH1 0x2 ADD PUSH1 0x0 DUP4 PUSH1 0x4 DUP2 GT ISZERO PUSH2 0x3CC JUMPI PUSH2 0x3CC PUSH2 0xC15 JUMP JUMPDEST PUSH1 0x4 DUP2 GT ISZERO PUSH2 0x3DD JUMPI PUSH2 0x3DD PUSH2 0xC15 JUMP JUMPDEST DUP2 MSTORE PUSH1 0x20 DUP2 ADD SWAP2 SWAP1 SWAP2 MSTORE PUSH1 0x40 ADD PUSH1 0x0 KECCAK256 PUSH1 0x5 DUP2 ADD SLOAD SWAP1 SWAP2 POP PUSH1 0xFF AND PUSH2 0x42A JUMPI DUP1 SLOAD PUSH2 0x408 SWAP1 DUP8 PUSH2 0xD92 JUMP JUMPDEST SWAP6 POP DUP1 PUSH1 0x1 ADD SLOAD DUP6 PUSH2 0x41A SWAP2 SWAP1 PUSH2 0xD92 JUMP JUMPDEST SWAP5 POP DUP4 PUSH2 0x426 DUP2 PUSH2 0xDA5 JUMP JUMPDEST SWAP5 POP POP JUMPDEST POP POP DUP1 DUP1 PUSH2 0x437 SWAP1 PUSH2 0xDA5 JUMP JUMPDEST SWAP2 POP POP PUSH2 0x393 JUMP JUMPDEST POP DUP1 ISZERO PUSH2 0x463 JUMPI PUSH2 0x450 DUP2 DUP5 PUSH2 0xDBE JUMP JUMPDEST SWAP6 POP PUSH2 0x45C DUP2 DUP4 PUSH2 0xDBE JUMP JUMPDEST SWAP5 POP PUSH2 0x46C JUMP JUMPDEST PUSH1 0x0 SWAP6 POP PUSH1 0x0 SWAP5 POP JUMPDEST POP POP POP POP SWAP2 POP SWAP2 JUMP JUMPDEST PUSH2 0x47D PUSH2 0xA28 JUMP JUMPDEST PUSH1 0x1 PUSH1 0x1 PUSH1 0xA0 SHL SUB AND PUSH1 0x0 SWAP1 DUP2 MSTORE PUSH1 0x3 PUSH1 0x20 MSTORE PUSH1 0x40 SWAP1 KECCAK256 DUP1 SLOAD PUSH1 0xFF NOT AND SWAP1 SSTORE JUMP JUMPDEST PUSH2 0x4A6 PUSH2 0xA28 JUMP JUMPDEST PUSH2 0x4B0 PUSH1 0x0 PUSH2 0xA55 JUMP JUMPDEST JUMP JUMPDEST CALLER PUSH1 0x0 SWAP1 DUP2 MSTORE PUSH1 0x3 PUSH1 0x20 MSTORE PUSH1 0x40 SWAP1 KECCAK256 SLOAD PUSH1 0xFF AND DUP1 PUSH2 0x4DA JUMPI POP PUSH1 0x0 SLOAD PUSH1 0x1 PUSH1 0x1 PUSH1 0xA0 SHL SUB AND CALLER EQ JUMPDEST PUSH2 0x517 JUMPI PUSH1 0x40 MLOAD PUSH3 0x461BCD PUSH1 0xE5 SHL DUP2 MSTORE PUSH1 0x20 PUSH1 0x4 DUP3 ADD MSTORE PUSH1 0xE PUSH1 0x24 DUP3 ADD MSTORE PUSH14 0x139BDD08185D5D1A1BDC9A5E9959 PUSH1 0x92 SHL PUSH1 0x44 DUP3 ADD MSTORE PUSH1 0x64 ADD PUSH2 0x2A8 JUMP JUMPDEST PUSH1 0x1 PUSH1 0x1 PUSH1 0xA0 SHL SUB DUP2 AND PUSH1 0x0 SWAP1 DUP2 MSTORE PUSH1 0x2 PUSH1 0x20 MSTORE PUSH1 0x40 SWAP1 KECCAK256 PUSH1 0x4 ADD SLOAD PUSH1 0xFF AND ISZERO PUSH2 0x57C JUMPI PUSH1 0x40 MLOAD PUSH3 0x461BCD PUSH1 0xE5 SHL DUP2 MSTORE PUSH1 0x20 PUSH1 0x4 DUP3 ADD MSTORE PUSH1 0x16 PUSH1 0x24 DUP3 ADD MSTORE PUSH22 0x50726F66696C6520616C726561647920657869737473 PUSH1 0x50 SHL PUSH1 0x44 DUP3 ADD MSTORE PUSH1 0x64 ADD PUSH2 0x2A8 JUMP JUMPDEST PUSH1 0x1 PUSH1 0x1 PUSH1 0xA0 SHL SUB DUP2 AND PUSH1 0x0 DUP2 DUP2 MSTORE PUSH1 0x2 PUSH1 0x20 MSTORE PUSH1 0x40 DUP2 KECCAK256 DUP1 SLOAD PUSH1 0x1 PUSH1 0x1 PUSH1 0xA0 SHL SUB NOT AND SWAP1 SWAP3 OR DUP3 SSTORE TIMESTAMP PUSH1 0x3 DUP4 ADD SSTORE PUSH1 0x4 DUP3 ADD DUP1 SLOAD PUSH1 0xFF NOT AND PUSH1 0x1 OR SWAP1 SSTORE JUMPDEST PUSH1 0x5 DUP2 LT ISZERO PUSH2 0x6D8 JUMPI PUSH1 0x0 DUP2 PUSH1 0x4 DUP2 GT ISZERO PUSH2 0x5D8 JUMPI PUSH2 0x5D8 PUSH2 0xC15 JUMP JUMPDEST SWAP1 POP PUSH1 0x40 MLOAD DUP1 PUSH1 0xC0 ADD PUSH1 0x40 MSTORE DUP1 PUSH1 0x0 DUP2 MSTORE PUSH1 0x20 ADD PUSH1 0x0 DUP2 MSTORE PUSH1 0x20 ADD PUSH1 0x0 DUP2 MSTORE PUSH1 0x20 ADD PUSH1 0x1 PUSH1 0x2 DUP2 GT ISZERO PUSH2 0x60D JUMPI PUSH2 0x60D PUSH2 0xC15 JUMP JUMPDEST DUP2 MSTORE TIMESTAMP PUSH1 0x20 DUP3 ADD MSTORE PUSH1 0x1 PUSH1 0x40 SWAP1 SWAP2 ADD MSTORE PUSH1 0x2 DUP5 ADD PUSH1 0x0 DUP4 PUSH1 0x4 DUP2 GT ISZERO PUSH2 0x635 JUMPI PUSH2 0x635 PUSH2 0xC15 JUMP JUMPDEST PUSH1 0x4 DUP2 GT ISZERO PUSH2 0x646 JUMPI PUSH2 0x646 PUSH2 0xC15 JUMP JUMPDEST DUP2 MSTORE PUSH1 0x20 ADD SWAP1 DUP2 MSTORE PUSH1 0x20 ADD PUSH1 0x0 KECCAK256 PUSH1 0x0 DUP3 ADD MLOAD DUP2 PUSH1 0x0 ADD SSTORE PUSH1 0x20 DUP3 ADD MLOAD DUP2 PUSH1 0x1 ADD SSTORE PUSH1 0x40 DUP3 ADD MLOAD DUP2 PUSH1 0x2 ADD SSTORE PUSH1 0x60 DUP3 ADD MLOAD DUP2 PUSH1 0x3 ADD PUSH1 0x0 PUSH2 0x100 EXP DUP2 SLOAD DUP2 PUSH1 0xFF MUL NOT AND SWAP1 DUP4 PUSH1 0x2 DUP2 GT ISZERO PUSH2 0x69C JUMPI PUSH2 0x69C PUSH2 0xC15 JUMP JUMPDEST MUL OR SWAP1 SSTORE POP PUSH1 0x80 DUP3 ADD MLOAD PUSH1 0x4 DUP3 ADD SSTORE PUSH1 0xA0 SWAP1 SWAP2 ADD MLOAD PUSH1 0x5 SWAP1 SWAP2 ADD DUP1 SLOAD PUSH1 0xFF NOT AND SWAP2 ISZERO ISZERO SWAP2 SWAP1 SWAP2 OR SWAP1 SSTORE POP DUP1 PUSH2 0x6D0 DUP2 PUSH2 0xDA5 JUMP JUMPDEST SWAP2 POP POP PUSH2 0x5BB JUMP JUMPDEST POP PUSH1 0x40 MLOAD PUSH1 0x1 PUSH1 0x1 PUSH1 0xA0 SHL SUB DUP4 AND SWAP1 PUSH32 0xD0A9C13827B0712CF11159866FA593FB3407410B98E81F0DCFA6BC7FFD47AC2D SWAP1 PUSH1 0x0 SWAP1 LOG2 POP POP JUMP JUMPDEST PUSH2 0x719 PUSH2 0xA28 JUMP JUMPDEST PUSH1 0x1 PUSH1 0x1 PUSH1 0xA0 SHL SUB DUP2 AND PUSH2 0x761 JUMPI PUSH1 0x40 MLOAD PUSH3 0x461BCD PUSH1 0xE5 SHL DUP2 MSTORE PUSH1 0x20 PUSH1 0x4 DUP3 ADD MSTORE PUSH1 0xF PUSH1 0x24 DUP3 ADD MSTORE PUSH15 0x496E76616C69642061646472657373 PUSH1 0x88 SHL PUSH1 0x44 DUP3 ADD MSTORE PUSH1 0x64 ADD PUSH2 0x2A8 JUMP JUMPDEST PUSH1 0x1 PUSH1 0x1 PUSH1 0xA0 SHL SUB AND PUSH1 0x0 SWAP1 DUP2 MSTORE PUSH1 0x3 PUSH1 0x20 MSTORE PUSH1 0x40 SWAP1 KECCAK256 DUP1 SLOAD PUSH1 0xFF NOT AND PUSH1 0x1 OR SWAP1 SSTORE JUMP JUMPDEST CALLER PUSH1 0x0 SWAP1 DUP2 MSTORE PUSH1 0x3 PUSH1 0x20 MSTORE PUSH1 0x40 SWAP1 KECCAK256 SLOAD PUSH1 0xFF AND DUP1 PUSH2 0x7AD JUMPI POP PUSH1 0x0 SLOAD PUSH1 0x1 PUSH1 0x1 PUSH1 0xA0 SHL SUB AND CALLER EQ JUMPDEST PUSH2 0x7EA JUMPI PUSH1 0x40 MLOAD PUSH3 0x461BCD PUSH1 0xE5 SHL DUP2 MSTORE PUSH1 0x20 PUSH1 0x4 DUP3 ADD MSTORE PUSH1 0xE PUSH1 0x24 DUP3 ADD MSTORE PUSH14 0x139BDD08185D5D1A1BDC9A5E9959 PUSH1 0x92 SHL PUSH1 0x44 DUP3 ADD MSTORE PUSH1 0x64 ADD PUSH2 0x2A8 JUMP JUMPDEST PUSH2 0x7F2 PUSH2 0xAA5 JUMP JUMPDEST PUSH1 0x1 PUSH1 0x1 PUSH1 0xA0 SHL SUB DUP7 AND PUSH1 0x0 SWAP1 DUP2 MSTORE PUSH1 0x2 PUSH1 0x20 MSTORE PUSH1 0x40 SWAP1 KECCAK256 PUSH1 0x4 ADD SLOAD PUSH1 0xFF AND PUSH2 0x82D JUMPI PUSH1 0x40 MLOAD PUSH3 0x461BCD PUSH1 0xE5 SHL DUP2 MSTORE PUSH1 0x4 ADD PUSH2 0x2A8 SWAP1 PUSH2 0xD4C JUMP JUMPDEST DUP3 PUSH2 0x86D JUMPI PUSH1 0x40 MLOAD PUSH3 0x461BCD PUSH1 0xE5 SHL DUP2 MSTORE PUSH1 0x20 PUSH1 0x4 DUP3 ADD MSTORE PUSH1 0x10 PUSH1 0x24 DUP3 ADD MSTORE PUSH16 0x139BC819185D18481C1C9BDD9A591959 PUSH1 0x82 SHL PUSH1 0x44 DUP3 ADD MSTORE PUSH1 0x64 ADD PUSH2 0x2A8 JUMP JUMPDEST PUSH1 0x1 PUSH1 0x1 PUSH1 0xA0 SHL SUB DUP7 AND PUSH1 0x0 SWAP1 DUP2 MSTORE PUSH1 0x2 PUSH1 0x20 DUP2 SWAP1 MSTORE PUSH1 0x40 DUP3 KECCAK256 SWAP2 SWAP1 DUP3 ADD DUP2 DUP9 PUSH1 0x4 DUP2 GT ISZERO PUSH2 0x89E JUMPI PUSH2 0x89E PUSH2 0xC15 JUMP JUMPDEST PUSH1 0x4 DUP2 GT ISZERO PUSH2 0x8AF JUMPI PUSH2 0x8AF PUSH2 0xC15 JUMP JUMPDEST DUP2 MSTORE PUSH1 0x20 ADD SWAP1 DUP2 MSTORE PUSH1 0x20 ADD PUSH1 0x0 KECCAK256 SWAP1 POP PUSH1 0x0 PUSH2 0x8FD DUP8 DUP8 DUP1 DUP1 PUSH1 0x20 MUL PUSH1 0x20 ADD PUSH1 0x40 MLOAD SWAP1 DUP2 ADD PUSH1 0x40 MSTORE DUP1 SWAP4 SWAP3 SWAP2 SWAP1 DUP2 DUP2 MSTORE PUSH1 0x20 ADD DUP4 DUP4 PUSH1 0x20 MUL DUP1 DUP3 DUP5 CALLDATACOPY PUSH1 0x0 SWAP3 ADD SWAP2 SWAP1 SWAP2 MSTORE POP PUSH2 0xACF SWAP3 POP POP POP JUMP JUMPDEST SWAP1 POP PUSH1 0x0 PUSH1 0x5 DUP8 LT ISZERO PUSH2 0x91A JUMPI PUSH2 0x915 DUP8 PUSH1 0x14 PUSH2 0xDE0 JUMP JUMPDEST PUSH2 0x91D JUMP JUMPDEST PUSH1 0x50 JUMPDEST SWAP1 POP PUSH1 0x0 PUSH2 0x92F DUP5 PUSH1 0x0 ADD SLOAD DUP5 PUSH2 0xB55 JUMP JUMPDEST DUP4 DUP6 SSTORE PUSH1 0x1 DUP1 DUP7 ADD DUP5 SWAP1 SSTORE PUSH1 0x2 DUP1 DUP8 ADD DUP12 SWAP1 SSTORE PUSH1 0x3 DUP8 ADD DUP1 SLOAD SWAP4 SWAP5 POP DUP5 SWAP4 SWAP1 SWAP3 PUSH1 0xFF NOT SWAP1 SWAP2 AND SWAP2 DUP5 SWAP1 DUP2 GT ISZERO PUSH2 0x967 JUMPI PUSH2 0x967 PUSH2 0xC15 JUMP JUMPDEST MUL OR SWAP1 SSTORE POP TIMESTAMP PUSH1 0x4 DUP6 ADD DUP2 SWAP1 SSTORE PUSH1 0x5 DUP1 DUP7 ADD DUP1 SLOAD PUSH1 0xFF NOT AND SWAP2 DUP12 LT SWAP2 SWAP1 SWAP2 OR SWAP1 SSTORE PUSH1 0x3 DUP7 ADD SSTORE PUSH1 0x40 MLOAD PUSH1 0x1 PUSH1 0x1 PUSH1 0xA0 SHL SUB DUP13 AND SWAP1 PUSH32 0xF99B345299F82A2FD2B37C250D9F229A136CF3ABA480C8840799A59EE84F8A3C SWAP1 PUSH2 0x9CC SWAP1 DUP14 SWAP1 DUP8 SWAP1 DUP8 SWAP1 PUSH2 0xDF7 JUMP JUMPDEST PUSH1 0x40 MLOAD DUP1 SWAP2 SUB SWAP1 LOG2 POP POP POP POP POP PUSH2 0x9E2 PUSH1 0x1 DUP1 SSTORE JUMP JUMPDEST POP POP POP POP POP POP JUMP JUMPDEST PUSH2 0x9F2 PUSH2 0xA28 JUMP JUMPDEST PUSH1 0x1 PUSH1 0x1 PUSH1 0xA0 SHL SUB DUP2 AND PUSH2 0xA1C JUMPI PUSH1 0x40 MLOAD PUSH4 0x1E4FBDF7 PUSH1 0xE0 SHL DUP2 MSTORE PUSH1 0x0 PUSH1 0x4 DUP3 ADD MSTORE PUSH1 0x24 ADD PUSH2 0x2A8 JUMP JUMPDEST PUSH2 0xA25 DUP2 PUSH2 0xA55 JUMP JUMPDEST POP JUMP JUMPDEST PUSH1 0x0 SLOAD PUSH1 0x1 PUSH1 0x1 PUSH1 0xA0 SHL SUB AND CALLER EQ PUSH2 0x4B0 JUMPI PUSH1 0x40 MLOAD PUSH4 0x118CDAA7 PUSH1 0xE0 SHL DUP2 MSTORE CALLER PUSH1 0x4 DUP3 ADD MSTORE PUSH1 0x24 ADD PUSH2 0x2A8 JUMP JUMPDEST PUSH1 0x0 DUP1 SLOAD PUSH1 0x1 PUSH1 0x1 PUSH1 0xA0 SHL SUB DUP4 DUP2 AND PUSH1 0x1 PUSH1 0x1 PUSH1 0xA0 SHL SUB NOT DUP4 AND DUP2 OR DUP5 SSTORE PUSH1 0x40 MLOAD SWAP2 SWAP1 SWAP3 AND SWAP3 DUP4 SWAP2 PUSH32 0x8BE0079C531659141344CD1FD0A4F28419497F9722A3DAAFE3B4186F6B6457E0 SWAP2 SWAP1 LOG3 POP POP JUMP JUMPDEST PUSH1 0x2 PUSH1 0x1 SLOAD SUB PUSH2 0xAC8 JUMPI PUSH1 0x40 MLOAD PUSH4 0x3EE5AEB5 PUSH1 0xE0 SHL DUP2 MSTORE PUSH1 0x4 ADD PUSH1 0x40 MLOAD DUP1 SWAP2 SUB SWAP1 REVERT JUMPDEST PUSH1 0x2 PUSH1 0x1 SSTORE JUMP JUMPDEST PUSH1 0x0 DUP2 MLOAD PUSH1 0x0 SUB PUSH2 0xAE2 JUMPI POP PUSH1 0x0 SWAP2 SWAP1 POP JUMP JUMPDEST PUSH1 0x0 DUP1 JUMPDEST DUP4 MLOAD DUP2 LT ISZERO PUSH2 0xB28 JUMPI DUP4 DUP2 DUP2 MLOAD DUP2 LT PUSH2 0xB01 JUMPI PUSH2 0xB01 PUSH2 0xE1F JUMP JUMPDEST PUSH1 0x20 MUL PUSH1 0x20 ADD ADD MLOAD DUP3 PUSH2 0xB14 SWAP2 SWAP1 PUSH2 0xD92 JUMP JUMPDEST SWAP2 POP DUP1 PUSH2 0xB20 DUP2 PUSH2 0xDA5 JUMP JUMPDEST SWAP2 POP POP PUSH2 0xAE6 JUMP JUMPDEST POP PUSH1 0x0 DUP4 MLOAD DUP3 PUSH2 0xB38 SWAP2 SWAP1 PUSH2 0xDBE JUMP JUMPDEST SWAP1 POP PUSH2 0x3E8 DUP2 GT PUSH2 0xB49 JUMPI DUP1 PUSH2 0xB4D JUMP JUMPDEST PUSH2 0x3E8 JUMPDEST SWAP5 SWAP4 POP POP POP POP JUMP JUMPDEST PUSH1 0x0 PUSH2 0xB62 DUP4 PUSH1 0xA PUSH2 0xD92 JUMP JUMPDEST DUP3 GT ISZERO PUSH2 0xB71 JUMPI POP PUSH1 0x0 PUSH2 0xB8F JUMP JUMPDEST PUSH2 0xB7C DUP3 PUSH1 0xA PUSH2 0xD92 JUMP JUMPDEST DUP4 GT ISZERO PUSH2 0xB8B JUMPI POP PUSH1 0x2 PUSH2 0xB8F JUMP JUMPDEST POP PUSH1 0x1 JUMPDEST SWAP3 SWAP2 POP POP JUMP JUMPDEST DUP1 CALLDATALOAD PUSH1 0x1 PUSH1 0x1 PUSH1 0xA0 SHL SUB DUP2 AND DUP2 EQ PUSH2 0xBAC JUMPI PUSH1 0x0 DUP1 REVERT JUMPDEST SWAP2 SWAP1 POP JUMP JUMPDEST PUSH1 0x0 PUSH1 0x20 DUP3 DUP5 SUB SLT ISZERO PUSH2 0xBC3 JUMPI PUSH1 0x0 DUP1 REVERT JUMPDEST PUSH2 0xBCC DUP3 PUSH2 0xB95 JUMP JUMPDEST SWAP4 SWAP3 POP POP POP JUMP JUMPDEST DUP1 CALLDATALOAD PUSH1 0x5 DUP2 LT PUSH2 0xBAC JUMPI PUSH1 0x0 DUP1 REVERT JUMPDEST PUSH1 0x0 DUP1 PUSH1 0x40 DUP4 DUP6 SUB SLT ISZERO PUSH2 0xBF5 JUMPI PUSH1 0x0 DUP1 REVERT JUMPDEST PUSH2 0xBFE DUP4 PUSH2 0xB95 JUMP JUMPDEST SWAP2 POP PUSH2 0xC0C PUSH1 0x20 DUP5 ADD PUSH2 0xBD3 JUMP JUMPDEST SWAP1 POP SWAP3 POP SWAP3 SWAP1 POP JUMP JUMPDEST PUSH4 0x4E487B71 PUSH1 0xE0 SHL PUSH1 0x0 MSTORE PUSH1 0x21 PUSH1 0x4 MSTORE PUSH1 0x24 PUSH1 0x0 REVERT JUMPDEST DUP7 DUP2 MSTORE PUSH1 0x20 DUP2 ADD DUP7 SWAP1 MSTORE PUSH1 0x40 DUP2 ADD DUP6 SWAP1 MSTORE PUSH1 0xC0 DUP2 ADD PUSH1 0x3 DUP6 LT PUSH2 0xC50 JUMPI PUSH2 0xC50 PUSH2 0xC15 JUMP JUMPDEST DUP5 PUSH1 0x60 DUP4 ADD MSTORE DUP4 PUSH1 0x80 DUP4 ADD MSTORE DUP3 ISZERO ISZERO PUSH1 0xA0 DUP4 ADD MSTORE SWAP8 SWAP7 POP POP POP POP POP POP POP JUMP JUMPDEST PUSH1 0x0 DUP1 DUP4 PUSH1 0x1F DUP5 ADD SLT PUSH2 0xC81 JUMPI PUSH1 0x0 DUP1 REVERT JUMPDEST POP DUP2 CALLDATALOAD PUSH8 0xFFFFFFFFFFFFFFFF DUP2 GT ISZERO PUSH2 0xC99 JUMPI PUSH1 0x0 DUP1 REVERT JUMPDEST PUSH1 0x20 DUP4 ADD SWAP2 POP DUP4 PUSH1 0x20 DUP3 PUSH1 0x5 SHL DUP6 ADD ADD GT ISZERO PUSH2 0xCB4 JUMPI PUSH1 0x0 DUP1 REVERT JUMPDEST SWAP3 POP SWAP3 SWAP1 POP JUMP JUMPDEST PUSH1 0x0 DUP1 PUSH1 0x0 DUP1 PUSH1 0x0 DUP1 PUSH1 0x80 DUP8 DUP10 SUB SLT ISZERO PUSH2 0xCD4 JUMPI PUSH1 0x0 DUP1 REVERT JUMPDEST PUSH2 0xCDD DUP8 PUSH2 0xB95 JUMP JUMPDEST SWAP6 POP PUSH2 0xCEB PUSH1 0x20 DUP9 ADD PUSH2 0xBD3 JUMP JUMPDEST SWAP5 POP PUSH1 0x40 DUP8 ADD CALLDATALOAD PUSH8 0xFFFFFFFFFFFFFFFF DUP1 DUP3 GT ISZERO PUSH2 0xD08 JUMPI PUSH1 0x0 DUP1 REVERT JUMPDEST PUSH2 0xD14 DUP11 DUP4 DUP12 ADD PUSH2 0xC6F JUMP JUMPDEST SWAP1 SWAP7 POP SWAP5 POP PUSH1 0x60 DUP10 ADD CALLDATALOAD SWAP2 POP DUP1 DUP3 GT ISZERO PUSH2 0xD2D JUMPI PUSH1 0x0 DUP1 REVERT JUMPDEST POP PUSH2 0xD3A DUP10 DUP3 DUP11 ADD PUSH2 0xC6F JUMP JUMPDEST SWAP8 SWAP11 SWAP7 SWAP10 POP SWAP5 SWAP8 POP SWAP3 SWAP6 SWAP4 SWAP5 SWAP3 POP POP POP JUMP JUMPDEST PUSH1 0x20 DUP1 DUP3 MSTORE PUSH1 0x16 SWAP1 DUP3 ADD MSTORE PUSH22 0x141C9BD99A5B1948191BD95CC81B9BDD08195E1A5CDD PUSH1 0x52 SHL PUSH1 0x40 DUP3 ADD MSTORE PUSH1 0x60 ADD SWAP1 JUMP JUMPDEST PUSH4 0x4E487B71 PUSH1 0xE0 SHL PUSH1 0x0 MSTORE PUSH1 0x11 PUSH1 0x4 MSTORE PUSH1 0x24 PUSH1 0x0 REVERT JUMPDEST DUP1 DUP3 ADD DUP1 DUP3 GT ISZERO PUSH2 0xB8F JUMPI PUSH2 0xB8F PUSH2 0xD7C JUMP JUMPDEST PUSH1 0x0 PUSH1 0x1 DUP3 ADD PUSH2 0xDB7 JUMPI PUSH2 0xDB7 PUSH2 0xD7C JUMP JUMPDEST POP PUSH1 0x1 ADD SWAP1 JUMP JUMPDEST PUSH1 0x0 DUP3 PUSH2 0xDDB JUMPI PUSH4 0x4E487B71 PUSH1 0xE0 SHL PUSH1 0x0 MSTORE PUSH1 0x12 PUSH1 0x4 MSTORE PUSH1 0x24 PUSH1 0x0 REVERT JUMPDEST POP DIV SWAP1 JUMP JUMPDEST DUP1 DUP3 MUL DUP2 ISZERO DUP3 DUP3 DIV DUP5 EQ OR PUSH2 0xB8F JUMPI PUSH2 0xB8F PUSH2 0xD7C JUMP JUMPDEST PUSH1 0x60 DUP2 ADD PUSH1 0x5 DUP6 LT PUSH2 0xE0B JUMPI PUSH2 0xE0B PUSH2 0xC15 JUMP JUMPDEST SWAP4 DUP2 MSTORE PUSH1 0x20 DUP2 ADD SWAP3 SWAP1 SWAP3 MSTORE PUSH1 0x40 SWAP1 SWAP2 ADD MSTORE SWAP1 JUMP JUMPDEST PUSH4 0x4E487B71 PUSH1 0xE0 SHL PUSH1 0x0 MSTORE PUSH1 0x32 PUSH1 0x4 MSTORE PUSH1 0x24 PUSH1 0x0 REVERT INVALID LOG2 PUSH5 0x6970667358 0x22 SLT KECCAK256 0x4F MUL 0xD4 0x1E DUP7 PUSH3 0x796612 0xA6 PUSH30 0xEAE604C6FDA6AF6234E22B690EF97F3A61AB602F7864736F6C6343000814 STOP CALLER "},"methodIdentifiers":{"MAX_CONFIDENCE()":"6c78449c","MAX_SCORE()":"27ff6223","addAuthorizedUpdater(address)":"8c9b9fdc","authorizedUpdaters(address)":"8ff29cfe","createCreditProfile(address)":"74df2d54","getCompositeScore(address)":"4ac358a6","getCreditProfile(address)":"079bafe3","getScoreDimension(address,uint8)":"24cccb3c","owner()":"8da5cb5b","removeAuthorizedUpdater(address)":"603cda09","renounceOwnership()":"715018a6","transferOwnership(address)":"f2fde38b","updateScoreDimension(address,uint8,uint256[],uint256[])":"ed0649a9"}},"storageLayout":{"storage":[{"astId":8,"contract":"contracts/SimpleCreditScore.sol:SimpleCreditScore","label":"_owner","offset":0,"slot":"0","type":"t_address"},{"astId":305,"contract":"contracts/SimpleCreditScore.sol:SimpleCreditScore","label":"_status","offset":0,"slot":"1","type":"t_uint256"},{"astId":435,"contract":"contracts/SimpleCreditScore.sol:SimpleCreditScore","label":"creditProfiles","offset":0,"slot":"2","type":"t_mapping(t_address,t_struct(CreditProfile)430_storage)"},{"astId":439,"contract":"contracts/SimpleCreditScore.sol:SimpleCreditScore","label":"authorizedUpdaters","offset":0,"slot":"3","type":"t_mapping(t_address,t_bool)"}],"types":{"t_address":{"encoding":"inplace","label":"address","numberOfBytes":"20"},"t_array(t_address)dyn_storage":{"base":"t_address","encoding":"dynamic_array","label":"address[]","numberOfBytes":"32"},"t_bool":{"encoding":"inplace","label":"bool","numberOfBytes":"1"},"t_enum(CreditDimension)400":{"encoding":"inplace","label":"enum SimpleCreditScore.CreditDimension","numberOfBytes":"1"},"t_enum(ScoreTrend)394":{"encoding":"inplace","label":"enum SimpleCreditScore.ScoreTrend","numberOfBytes":"1"},"t_mapping(t_address,t_bool)":{"encoding":"mapping","key":"t_address","label":"mapping(address => bool)","numberOfBytes":"32","value":"t_bool"},"t_mapping(t_address,t_struct(CreditProfile)430_storage)":{"encoding":"mapping","key":"t_address","label":"mapping(address => struct SimpleCreditScore.CreditProfile)","numberOfBytes":"32","value":"t_struct(CreditProfile)430_storage"},"t_mapping(t_enum(CreditDimension)400,t_struct(ScoreDimensionData)414_storage)":{"encoding":"mapping","key":"t_enum(CreditDimension)400","label":"mapping(enum SimpleCreditScore.CreditDimension => struct SimpleCreditScore.ScoreDimensionData)","numberOfBytes":"32","value":"t_struct(ScoreDimensionData)414_storage"},"t_struct(CreditProfile)430_storage":{"encoding":"inplace","label":"struct SimpleCreditScore.CreditProfile","members":[{"astId":416,"contract":"contracts/SimpleCreditScore.sol:SimpleCreditScore","label":"userAddress","offset":0,"slot":"0","type":"t_address"},{"astId":419,"contract":"contracts/SimpleCreditScore.sol:SimpleCreditScore","label":"linkedWallets","offset":0,"slot":"1","type":"t_array(t_address)dyn_storage"},{"astId":425,"contract":"contracts/SimpleCreditScore.sol:SimpleCreditScore","label":"dimensions","offset":0,"slot":"2","type":"t_mapping(t_enum(CreditDimension)400,t_struct(ScoreDimensionData)414_storage)"},{"astId":427,"contract":"contracts/SimpleCreditScore.sol:SimpleCreditScore","label":"lastUpdated","offset":0,"slot":"3","type":"t_uint256"},{"astId":429,"contract":"contracts/SimpleCreditScore.sol:SimpleCreditScore","label":"exists","offset":0,"slot":"4","type":"t_bool"}],"numberOfBytes":"160"},"t_struct(ScoreDimensionData)414_storage":{"encoding":"inplace","label":"struct SimpleCreditScore.ScoreDimensionData","members":[{"astId":402,"contract":"contracts/SimpleCreditScore.sol:SimpleCreditScore","label":"score","offset":0,"slot":"0","type":"t_uint256"},{"astId":404,"contract":"contracts/SimpleCreditScore.sol:SimpleCreditScore","label":"confidence","offset":0,"slot":"1","type":"t_uint256"},{"astId":406,"contract":"contracts/SimpleCreditScore.sol:SimpleCreditScore","label":"dataPoints","offset":0,"slot":"2","type":"t_uint256"},{"astId":409,"contract":"contracts/SimpleCreditScore.sol:SimpleCreditScore","label":"trend","offset":0,"slot":"3","type":"t_enum(ScoreTrend)394"},{"astId":411,"contract":"contracts/SimpleCreditScore.sol:SimpleCreditScore","label":"lastCalculated","offset":0,"slot":"4","type":"t_uint256"},{"astId":413,"contract":"contracts/SimpleCreditScore.sol:SimpleCreditScore","label":"hasInsufficientData","offset":0,"slot":"5","type":"t_bool"}],"numberOfBytes":"192"},"t_uint256":{"encoding":"inplace","label":"uint256","numberOfBytes":"32"}}}}}}