{
  "_format": "hh-sol-artifact-1",
  "contractName": "SimpleCreditScore",
  "sourceName": "contracts/SimpleCreditScore.sol",
  "abi": [
    {
      "inputs": [],
      "stateMutability": "nonpayable",
      "type": "constructor"
    },
    {
      "inputs": [
        {
          "internalType": "address",
          "name": "owner",
          "type": "address"
        }
      ],
      "name": "OwnableInvalidOwner",
      "type": "error"
    },
    {
      "inputs": [
        {
          "internalType": "address",
          "name": "account",
          "type": "address"
        }
      ],
      "name": "OwnableUnauthorizedAccount",
      "type": "error"
    },
    {
      "inputs": [],
      "name": "ReentrancyGuardReentrantCall",
      "type": "error"
    },
    {
      "anonymous": false,
      "inputs": [
        {
          "indexed": true,
          "internalType": "address",
          "name": "user",
          "type": "address"
        }
      ],
      "name": "CreditProfileCreated",
      "type": "event"
    },
    {
      "anonymous": false,
      "inputs": [
        {
          "indexed": true,
          "internalType": "address",
          "name": "previousOwner",
          "type": "address"
        },
        {
          "indexed": true,
          "internalType": "address",
          "name": "newOwner",
          "type": "address"
        }
      ],
      "name": "OwnershipTransferred",
      "type": "event"
    },
    {
      "anonymous": false,
      "inputs": [
        {
          "indexed": true,
          "internalType": "address",
          "name": "user",
          "type": "address"
        },
        {
          "indexed": false,
          "internalType": "enum SimpleCreditScore.CreditDimension",
          "name": "dimension",
          "type": "uint8"
        },
        {
          "indexed": false,
          "internalType": "uint256",
          "name": "newScore",
          "type": "uint256"
        },
        {
          "indexed": false,
          "internalType": "uint256",
          "name": "confidence",
          "type": "uint256"
        }
      ],
      "name": "ScoreDimensionUpdated",
      "type": "event"
    },
    {
      "anonymous": false,
      "inputs": [
        {
          "indexed": true,
          "internalType": "address",
          "name": "user",
          "type": "address"
        },
        {
          "indexed": true,
          "internalType": "address",
          "name": "linkedWallet",
          "type": "address"
        }
      ],
      "name": "WalletLinked",
      "type": "event"
    },
    {
      "inputs": [],
      "name": "MAX_CONFIDENCE",
      "outputs": [
        {
          "internalType": "uint256",
          "name": "",
          "type": "uint256"
        }
      ],
      "stateMutability": "view",
      "type": "function"
    },
    {
      "inputs": [],
      "name": "MAX_SCORE",
      "outputs": [
        {
          "internalType": "uint256",
          "name": "",
          "type": "uint256"
        }
      ],
      "stateMutability": "view",
      "type": "function"
    },
    {
      "inputs": [
        {
          "internalType": "address",
          "name": "updater",
          "type": "address"
        }
      ],
      "name": "addAuthorizedUpdater",
      "outputs": [],
      "stateMutability": "nonpayable",
      "type": "function"
    },
    {
      "inputs": [
        {
          "internalType": "address",
          "name": "",
          "type": "address"
        }
      ],
      "name": "authorizedUpdaters",
      "outputs": [
        {
          "internalType": "bool",
          "name": "",
          "type": "bool"
        }
      ],
      "stateMutability": "view",
      "type": "function"
    },
    {
      "inputs": [
        {
          "internalType": "address",
          "name": "user",
          "type": "address"
        }
      ],
      "name": "createCreditProfile",
      "outputs": [],
      "stateMutability": "nonpayable",
      "type": "function"
    },
    {
      "inputs": [
        {
          "internalType": "address",
          "name": "user",
          "type": "address"
        }
      ],
      "name": "getCompositeScore",
      "outputs": [
        {
          "internalType": "uint256",
          "name": "compositeScore",
          "type": "uint256"
        },
        {
          "internalType": "uint256",
          "name": "overallConfidence",
          "type": "uint256"
        }
      ],
      "stateMutability": "view",
      "type": "function"
    },
    {
      "inputs": [
        {
          "internalType": "address",
          "name": "user",
          "type": "address"
        }
      ],
      "name": "getCreditProfile",
      "outputs": [
        {
          "internalType": "bool",
          "name": "exists",
          "type": "bool"
        },
        {
          "internalType": "address",
          "name": "userAddress",
          "type": "address"
        },
        {
          "internalType": "uint256",
          "name": "lastUpdated",
          "type": "uint256"
        }
      ],
      "stateMutability": "view",
      "type": "function"
    },
    {
      "inputs": [
        {
          "internalType": "address",
          "name": "user",
          "type": "address"
        },
        {
          "internalType": "enum SimpleCreditScore.CreditDimension",
          "name": "dimension",
          "type": "uint8"
        }
      ],
      "name": "getScoreDimension",
      "outputs": [
        {
          "internalType": "uint256",
          "name": "score",
          "type": "uint256"
        },
        {
          "internalType": "uint256",
          "name": "confidence",
          "type": "uint256"
        },
        {
          "internalType": "uint256",
          "name": "dataPoints",
          "type": "uint256"
        },
        {
          "internalType": "enum SimpleCreditScore.ScoreTrend",
          "name": "trend",
          "type": "uint8"
        },
        {
          "internalType": "uint256",
          "name": "lastCalculated",
          "type": "uint256"
        },
        {
          "internalType": "bool",
          "name": "hasInsufficientData",
          "type": "bool"
        }
      ],
      "stateMutability": "view",
      "type": "function"
    },
    {
      "inputs": [],
      "name": "owner",
      "outputs": [
        {
          "internalType": "address",
          "name": "",
          "type": "address"
        }
      ],
      "stateMutability": "view",
      "type": "function"
    },
    {
      "inputs": [
        {
          "internalType": "address",
          "name": "updater",
          "type": "address"
        }
      ],
      "name": "removeAuthorizedUpdater",
      "outputs": [],
      "stateMutability": "nonpayable",
      "type": "function"
    },
    {
      "inputs": [],
      "name": "renounceOwnership",
      "outputs": [],
      "stateMutability": "nonpayable",
      "type": "function"
    },
    {
      "inputs": [
        {
          "internalType": "address",
          "name": "newOwner",
          "type": "address"
        }
      ],
      "name": "transferOwnership",
      "outputs": [],
      "stateMutability": "nonpayable",
      "type": "function"
    },
    {
      "inputs": [
        {
          "internalType": "address",
          "name": "user",
          "type": "address"
        },
        {
          "internalType": "enum SimpleCreditScore.CreditDimension",
          "name": "dimension",
          "type": "uint8"
        },
        {
          "internalType": "uint256[]",
          "name": "rawData",
          "type": "uint256[]"
        },
        {
          "internalType": "uint256[]",
          "name": "weights",
          "type": "uint256[]"
        }
      ],
      "name": "updateScoreDimension",
      "outputs": [],
      "stateMutability": "nonpayable",
      "type": "function"
    }
  ],
  "bytecode": "0x608060405234801561001057600080fd5b50338061003757604051631e4fbdf760e01b81526000600482015260240160405180910390fd5b61004081610065565b506001808055336000908152600360205260409020805460ff191690911790556100b5565b600080546001600160a01b038381166001600160a01b0319831681178455604051919092169283917f8be0079c531659141344cd1fd0a4f28419497f9722a3daafe3b4186f6b6457e09190a35050565b610e6b806100c46000396000f3fe608060405234801561001057600080fd5b50600436106100cf5760003560e01c8063715018a61161008c5780638da5cb5b116100665780638da5cb5b146101ef5780638ff29cfe1461020a578063ed0649a91461023d578063f2fde38b1461025057600080fd5b8063715018a6146101c157806374df2d54146101c95780638c9b9fdc146101dc57600080fd5b8063079bafe3146100d457806324cccb3c1461014057806327ff6223146101655780634ac358a61461017c578063603cda09146101a45780636c78449c146101b9575b600080fd5b6101166100e2366004610bb1565b6001600160a01b0390811660009081526002602052604090206004810154815460039092015460ff90911693919092169190565b6040805193151584526001600160a01b039092166020840152908201526060015b60405180910390f35b61015361014e366004610be2565b610263565b60405161013796959493929190610c2b565b61016e6103e881565b604051908152602001610137565b61018f61018a366004610bb1565b610339565b60408051928352602083019190915201610137565b6101b76101b2366004610bb1565b610475565b005b61016e606481565b6101b761049e565b6101b76101d7366004610bb1565b6104b2565b6101b76101ea366004610bb1565b610711565b6000546040516001600160a01b039091168152602001610137565b61022d610218366004610bb1565b60036020526000908152604090205460ff1681565b6040519015158152602001610137565b6101b761024b366004610cbb565b610785565b6101b761025e366004610bb1565b6109ea565b6001600160a01b0382166000908152600260205260408120600401548190819081908190819060ff166102b15760405162461bcd60e51b81526004016102a890610d4c565b60405180910390fd5b6001600160a01b0388166000908152600260208190526040822001818960048111156102df576102df610c15565b60048111156102f0576102f0610c15565b8152602081019190915260400160002080546001820154600283015460038401546004850154600590950154939e929d50909b5060ff9081169a50929850911695509350505050565b6001600160a01b038116600090815260026020526040812060040154819060ff166103765760405162461bcd60e51b81526004016102a890610d4c565b6001600160a01b0383166000908152600260205260408120908080805b600581101561043f5760008160048111156103b0576103b0610c15565b905060008660020160008360048111156103cc576103cc610c15565b60048111156103dd576103dd610c15565b81526020810191909152604001600020600581015490915060ff1661042a5780546104089087610d92565b955080600101548561041a9190610d92565b94508361042681610da5565b9450505b5050808061043790610da5565b915050610393565b508015610463576104508184610dbe565b955061045c8183610dbe565b945061046c565b60009550600094505b50505050915091565b61047d610a28565b6001600160a01b03166000908152600360205260409020805460ff19169055565b6104a6610a28565b6104b06000610a55565b565b3360009081526003602052604090205460ff16806104da57506000546001600160a01b031633145b6105175760405162461bcd60e51b815260206004820152600e60248201526d139bdd08185d5d1a1bdc9a5e995960921b60448201526064016102a8565b6001600160a01b03811660009081526002602052604090206004015460ff161561057c5760405162461bcd60e51b815260206004820152601660248201527550726f66696c6520616c72656164792065786973747360501b60448201526064016102a8565b6001600160a01b038116600081815260026020526040812080546001600160a01b031916909217825542600383015560048201805460ff191660011790555b60058110156106d85760008160048111156105d8576105d8610c15565b90506040518060c001604052806000815260200160008152602001600081526020016001600281111561060d5761060d610c15565b8152426020820152600160409091015260028401600083600481111561063557610635610c15565b600481111561064657610646610c15565b815260200190815260200160002060008201518160000155602082015181600101556040820151816002015560608201518160030160006101000a81548160ff0219169083600281111561069c5761069c610c15565b02179055506080820151600482015560a0909101516005909101805460ff191691151591909117905550806106d081610da5565b9150506105bb565b506040516001600160a01b038316907fd0a9c13827b0712cf11159866fa593fb3407410b98e81f0dcfa6bc7ffd47ac2d90600090a25050565b610719610a28565b6001600160a01b0381166107615760405162461bcd60e51b815260206004820152600f60248201526e496e76616c6964206164647265737360881b60448201526064016102a8565b6001600160a01b03166000908152600360205260409020805460ff19166001179055565b3360009081526003602052604090205460ff16806107ad57506000546001600160a01b031633145b6107ea5760405162461bcd60e51b815260206004820152600e60248201526d139bdd08185d5d1a1bdc9a5e995960921b60448201526064016102a8565b6107f2610aa5565b6001600160a01b03861660009081526002602052604090206004015460ff1661082d5760405162461bcd60e51b81526004016102a890610d4c565b8261086d5760405162461bcd60e51b815260206004820152601060248201526f139bc819185d18481c1c9bdd9a59195960821b60448201526064016102a8565b6001600160a01b03861660009081526002602081905260408220919082018188600481111561089e5761089e610c15565b60048111156108af576108af610c15565b8152602001908152602001600020905060006108fd878780806020026020016040519081016040528093929190818152602001838360200280828437600092019190915250610acf92505050565b90506000600587101561091a57610915876014610de0565b61091d565b60505b9050600061092f846000015484610b55565b838555600180860184905560028087018b90556003870180549394508493909260ff1990911691849081111561096757610967610c15565b021790555042600485018190556005808601805460ff1916918b1091909117905560038601556040516001600160a01b038c16907ff99b345299f82a2fd2b37c250d9f229a136cf3aba480c8840799a59ee84f8a3c906109cc908d9087908790610df7565b60405180910390a250505050506109e260018055565b505050505050565b6109f2610a28565b6001600160a01b038116610a1c57604051631e4fbdf760e01b8152600060048201526024016102a8565b610a2581610a55565b50565b6000546001600160a01b031633146104b05760405163118cdaa760e01b81523360048201526024016102a8565b600080546001600160a01b038381166001600160a01b0319831681178455604051919092169283917f8be0079c531659141344cd1fd0a4f28419497f9722a3daafe3b4186f6b6457e09190a35050565b600260015403610ac857604051633ee5aeb560e01b815260040160405180910390fd5b6002600155565b60008151600003610ae257506000919050565b6000805b8351811015610b2857838181518110610b0157610b01610e1f565b602002602001015182610b149190610d92565b915080610b2081610da5565b915050610ae6565b506000835182610b389190610dbe565b90506103e88111610b495780610b4d565b6103e85b949350505050565b6000610b6283600a610d92565b821115610b7157506000610b8f565b610b7c82600a610d92565b831115610b8b57506002610b8f565b5060015b92915050565b80356001600160a01b0381168114610bac57600080fd5b919050565b600060208284031215610bc357600080fd5b610bcc82610b95565b9392505050565b803560058110610bac57600080fd5b60008060408385031215610bf557600080fd5b610bfe83610b95565b9150610c0c60208401610bd3565b90509250929050565b634e487b7160e01b600052602160045260246000fd5b868152602081018690526040810185905260c0810160038510610c5057610c50610c15565b84606083015283608083015282151560a0830152979650505050505050565b60008083601f840112610c8157600080fd5b50813567ffffffffffffffff811115610c9957600080fd5b6020830191508360208260051b8501011115610cb457600080fd5b9250929050565b60008060008060008060808789031215610cd457600080fd5b610cdd87610b95565b9550610ceb60208801610bd3565b9450604087013567ffffffffffffffff80821115610d0857600080fd5b610d148a838b01610c6f565b90965094506060890135915080821115610d2d57600080fd5b50610d3a89828a01610c6f565b979a9699509497509295939492505050565b602080825260169082015275141c9bd99a5b1948191bd95cc81b9bdd08195e1a5cdd60521b604082015260600190565b634e487b7160e01b600052601160045260246000fd5b80820180821115610b8f57610b8f610d7c565b600060018201610db757610db7610d7c565b5060010190565b600082610ddb57634e487b7160e01b600052601260045260246000fd5b500490565b8082028115828204841417610b8f57610b8f610d7c565b6060810160058510610e0b57610e0b610c15565b938152602081019290925260409091015290565b634e487b7160e01b600052603260045260246000fdfea264697066735822122025258d7659ba4e8003dfebba9e7b2439531dfe060c2933fce2bcd3b82b52616e64736f6c63430008140033",
  "linkReferences": {},
  "deployedLinkReferences": {}
}